{
  "_format": "hh-sol-artifact-1",
  "contractName": "viinnsmoker",
  "sourceName": "contracts/PERC20sample.sol",
  "abi": [
    {
      "inputs": [],
      "stateMutability": "nonpayable",
      "type": "constructor"
    },
    {
      "inputs": [
        {
          "internalType": "address",
          "name": "sender",
          "type": "address"
        },
        {
          "internalType": "uint256",
          "name": "tokenId",
          "type": "uint256"
        },
        {
          "internalType": "address",
          "name": "owner",
          "type": "address"
        }
      ],
      "name": "ERC721IncorrectOwner",
      "type": "error"
    },
    {
      "inputs": [
        {
          "internalType": "address",
          "name": "operator",
          "type": "address"
        },
        {
          "internalType": "uint256",
          "name": "tokenId",
          "type": "uint256"
        }
      ],
      "name": "ERC721InsufficientApproval",
      "type": "error"
    },
    {
      "inputs": [
        {
          "internalType": "address",
          "name": "approver",
          "type": "address"
        }
      ],
      "name": "ERC721InvalidApprover",
      "type": "error"
    },
    {
      "inputs": [
        {
          "internalType": "address",
          "name": "operator",
          "type": "address"
        }
      ],
      "name": "ERC721InvalidOperator",
      "type": "error"
    },
    {
      "inputs": [
        {
          "internalType": "address",
          "name": "owner",
          "type": "address"
        }
      ],
      "name": "ERC721InvalidOwner",
      "type": "error"
    },
    {
      "inputs": [
        {
          "internalType": "address",
          "name": "receiver",
          "type": "address"
        }
      ],
      "name": "ERC721InvalidReceiver",
      "type": "error"
    },
    {
      "inputs": [
        {
          "internalType": "address",
          "name": "sender",
          "type": "address"
        }
      ],
      "name": "ERC721InvalidSender",
      "type": "error"
    },
    {
      "inputs": [
        {
          "internalType": "uint256",
          "name": "tokenId",
          "type": "uint256"
        }
      ],
      "name": "ERC721NonexistentToken",
      "type": "error"
    },
    {
      "anonymous": false,
      "inputs": [
        {
          "indexed": true,
          "internalType": "address",
          "name": "owner",
          "type": "address"
        },
        {
          "indexed": true,
          "internalType": "address",
          "name": "approved",
          "type": "address"
        },
        {
          "indexed": true,
          "internalType": "uint256",
          "name": "tokenId",
          "type": "uint256"
        }
      ],
      "name": "Approval",
      "type": "event"
    },
    {
      "anonymous": false,
      "inputs": [
        {
          "indexed": true,
          "internalType": "address",
          "name": "owner",
          "type": "address"
        },
        {
          "indexed": true,
          "internalType": "address",
          "name": "operator",
          "type": "address"
        },
        {
          "indexed": false,
          "internalType": "bool",
          "name": "approved",
          "type": "bool"
        }
      ],
      "name": "ApprovalForAll",
      "type": "event"
    },
    {
      "anonymous": false,
      "inputs": [
        {
          "indexed": true,
          "internalType": "address",
          "name": "from",
          "type": "address"
        },
        {
          "indexed": true,
          "internalType": "address",
          "name": "to",
          "type": "address"
        },
        {
          "indexed": true,
          "internalType": "uint256",
          "name": "tokenId",
          "type": "uint256"
        }
      ],
      "name": "Transfer",
      "type": "event"
    },
    {
      "inputs": [
        {
          "internalType": "address",
          "name": "to",
          "type": "address"
        },
        {
          "internalType": "uint256",
          "name": "tokenId",
          "type": "uint256"
        }
      ],
      "name": "approve",
      "outputs": [],
      "stateMutability": "nonpayable",
      "type": "function"
    },
    {
      "inputs": [
        {
          "internalType": "address",
          "name": "owner",
          "type": "address"
        }
      ],
      "name": "balanceOf",
      "outputs": [
        {
          "internalType": "uint256",
          "name": "",
          "type": "uint256"
        }
      ],
      "stateMutability": "view",
      "type": "function"
    },
    {
      "inputs": [
        {
          "internalType": "uint256",
          "name": "tokenId",
          "type": "uint256"
        }
      ],
      "name": "getApproved",
      "outputs": [
        {
          "internalType": "address",
          "name": "",
          "type": "address"
        }
      ],
      "stateMutability": "view",
      "type": "function"
    },
    {
      "inputs": [
        {
          "internalType": "address",
          "name": "owner",
          "type": "address"
        },
        {
          "internalType": "address",
          "name": "operator",
          "type": "address"
        }
      ],
      "name": "isApprovedForAll",
      "outputs": [
        {
          "internalType": "bool",
          "name": "",
          "type": "bool"
        }
      ],
      "stateMutability": "view",
      "type": "function"
    },
    {
      "inputs": [],
      "name": "mint",
      "outputs": [],
      "stateMutability": "nonpayable",
      "type": "function"
    },
    {
      "inputs": [],
      "name": "name",
      "outputs": [
        {
          "internalType": "string",
          "name": "",
          "type": "string"
        }
      ],
      "stateMutability": "view",
      "type": "function"
    },
    {
      "inputs": [
        {
          "internalType": "uint256",
          "name": "tokenId",
          "type": "uint256"
        }
      ],
      "name": "ownerOf",
      "outputs": [
        {
          "internalType": "address",
          "name": "",
          "type": "address"
        }
      ],
      "stateMutability": "view",
      "type": "function"
    },
    {
      "inputs": [
        {
          "internalType": "address",
          "name": "from",
          "type": "address"
        },
        {
          "internalType": "address",
          "name": "to",
          "type": "address"
        },
        {
          "internalType": "uint256",
          "name": "tokenId",
          "type": "uint256"
        }
      ],
      "name": "safeTransferFrom",
      "outputs": [],
      "stateMutability": "nonpayable",
      "type": "function"
    },
    {
      "inputs": [
        {
          "internalType": "address",
          "name": "from",
          "type": "address"
        },
        {
          "internalType": "address",
          "name": "to",
          "type": "address"
        },
        {
          "internalType": "uint256",
          "name": "tokenId",
          "type": "uint256"
        },
        {
          "internalType": "bytes",
          "name": "data",
          "type": "bytes"
        }
      ],
      "name": "safeTransferFrom",
      "outputs": [],
      "stateMutability": "nonpayable",
      "type": "function"
    },
    {
      "inputs": [
        {
          "internalType": "address",
          "name": "operator",
          "type": "address"
        },
        {
          "internalType": "bool",
          "name": "approved",
          "type": "bool"
        }
      ],
      "name": "setApprovalForAll",
      "outputs": [],
      "stateMutability": "nonpayable",
      "type": "function"
    },
    {
      "inputs": [
        {
          "internalType": "bytes4",
          "name": "interfaceId",
          "type": "bytes4"
        }
      ],
      "name": "supportsInterface",
      "outputs": [
        {
          "internalType": "bool",
          "name": "",
          "type": "bool"
        }
      ],
      "stateMutability": "view",
      "type": "function"
    },
    {
      "inputs": [],
      "name": "symbol",
      "outputs": [
        {
          "internalType": "string",
          "name": "",
          "type": "string"
        }
      ],
      "stateMutability": "view",
      "type": "function"
    },
    {
      "inputs": [
        {
          "internalType": "uint256",
          "name": "tokenId",
          "type": "uint256"
        }
      ],
      "name": "tokenURI",
      "outputs": [
        {
          "internalType": "string",
          "name": "",
          "type": "string"
        }
      ],
      "stateMutability": "view",
      "type": "function"
    },
    {
      "inputs": [
        {
          "internalType": "address",
          "name": "from",
          "type": "address"
        },
        {
          "internalType": "address",
          "name": "to",
          "type": "address"
        },
        {
          "internalType": "uint256",
          "name": "tokenId",
          "type": "uint256"
        }
      ],
      "name": "transferFrom",
      "outputs": [],
      "stateMutability": "nonpayable",
      "type": "function"
    }
  ],
  "bytecode": "0x60806040523480156200001157600080fd5b506040518060400160405280600b81526020017f7669696e6e736d6f6b65720000000000000000000000000000000000000000008152506040518060400160405280600381526020017f564e53000000000000000000000000000000000000000000000000000000000081525081600090816200008f919062000324565b508060019081620000a1919062000324565b5050506200040b565b600081519050919050565b7f4e487b7100000000000000000000000000000000000000000000000000000000600052604160045260246000fd5b7f4e487b7100000000000000000000000000000000000000000000000000000000600052602260045260246000fd5b600060028204905060018216806200012c57607f821691505b602082108103620001425762000141620000e4565b5b50919050565b60008190508160005260206000209050919050565b60006020601f8301049050919050565b600082821b905092915050565b600060088302620001ac7fffffffffffffffffffffffffffffffffffffffffffffffffffffffffffffffff826200016d565b620001b886836200016d565b95508019841693508086168417925050509392505050565b6000819050919050565b6000819050919050565b600062000205620001ff620001f984620001d0565b620001da565b620001d0565b9050919050565b6000819050919050565b6200022183620001e4565b6200023962000230826200020c565b8484546200017a565b825550505050565b600090565b6200025062000241565b6200025d81848462000216565b505050565b5b8181101562000285576200027960008262000246565b60018101905062000263565b5050565b601f821115620002d4576200029e8162000148565b620002a9846200015d565b81016020851015620002b9578190505b620002d1620002c8856200015d565b83018262000262565b50505b505050565b600082821c905092915050565b6000620002f960001984600802620002d9565b1980831691505092915050565b6000620003148383620002e6565b9150826002028217905092915050565b6200032f82620000aa565b67ffffffffffffffff8111156200034b576200034a620000b5565b5b62000357825462000113565b6200036482828562000289565b600060209050601f8311600181146200039c576000841562000387578287015190505b62000393858262000306565b86555062000403565b601f198416620003ac8662000148565b60005b82811015620003d657848901518255600182019150602085019450602081019050620003af565b86831015620003f65784890151620003f2601f891682620002e6565b8355505b6001600288020188555050505b505050505050565b611daf806200041b6000396000f3fe608060405234801561001057600080fd5b50600436106100ea5760003560e01c80636352211e1161008c578063a22cb46511610066578063a22cb46514610249578063b88d4fde14610265578063c87b56dd14610281578063e985e9c5146102b1576100ea565b80636352211e146101cb57806370a08231146101fb57806395d89b411461022b576100ea565b8063095ea7b3116100c8578063095ea7b31461016d5780631249c58b1461018957806323b872dd1461019357806342842e0e146101af576100ea565b806301ffc9a7146100ef57806306fdde031461011f578063081812fc1461013d575b600080fd5b610109600480360381019061010491906115f9565b6102e1565b6040516101169190611641565b60405180910390f35b6101276103c3565b60405161013491906116ec565b60405180910390f35b61015760048036038101906101529190611744565b610455565b60405161016491906117b2565b60405180910390f35b610187600480360381019061018291906117f9565b610471565b005b610191610487565b005b6101ad60048036038101906101a89190611839565b61049c565b005b6101c960048036038101906101c49190611839565b61059e565b005b6101e560048036038101906101e09190611744565b6105be565b6040516101f291906117b2565b60405180910390f35b6102156004803603810190610210919061188c565b6105d0565b60405161022291906118c8565b60405180910390f35b61023361068a565b60405161024091906116ec565b60405180910390f35b610263600480360381019061025e919061190f565b61071c565b005b61027f600480360381019061027a9190611a84565b610732565b005b61029b60048036038101906102969190611744565b61074f565b6040516102a891906116ec565b60405180910390f35b6102cb60048036038101906102c69190611b07565b6107b8565b6040516102d89190611641565b60405180910390f35b60007f80ac58cd000000000000000000000000000000000000000000000000000000007bffffffffffffffffffffffffffffffffffffffffffffffffffffffff1916827bffffffffffffffffffffffffffffffffffffffffffffffffffffffff191614806103ac57507f5b5e139f000000000000000000000000000000000000000000000000000000007bffffffffffffffffffffffffffffffffffffffffffffffffffffffff1916827bffffffffffffffffffffffffffffffffffffffffffffffffffffffff1916145b806103bc57506103bb8261084c565b5b9050919050565b6060600080546103d290611b76565b80601f01602080910402602001604051908101604052809291908181526020018280546103fe90611b76565b801561044b5780601f106104205761010080835404028352916020019161044b565b820191906000526020600020905b81548152906001019060200180831161042e57829003601f168201915b5050505050905090565b6000610460826108b6565b5061046a8261093e565b9050919050565b610483828261047e61097b565b610983565b5050565b61049a3368056bc75e2d63100000610995565b565b600073ffffffffffffffffffffffffffffffffffffffff168273ffffffffffffffffffffffffffffffffffffffff160361050e5760006040517f64a0ae9200000000000000000000000000000000000000000000000000000000815260040161050591906117b2565b60405180910390fd5b6000610522838361051d61097b565b610a8e565b90508373ffffffffffffffffffffffffffffffffffffffff168173ffffffffffffffffffffffffffffffffffffffff1614610598578382826040517f64283d7b00000000000000000000000000000000000000000000000000000000815260040161058f93929190611ba7565b60405180910390fd5b50505050565b6105b983838360405180602001604052806000815250610732565b505050565b60006105c9826108b6565b9050919050565b60008073ffffffffffffffffffffffffffffffffffffffff168273ffffffffffffffffffffffffffffffffffffffff16036106435760006040517f89c62b6400000000000000000000000000000000000000000000000000000000815260040161063a91906117b2565b60405180910390fd5b600360008373ffffffffffffffffffffffffffffffffffffffff1673ffffffffffffffffffffffffffffffffffffffff168152602001908152602001600020549050919050565b60606001805461069990611b76565b80601f01602080910402602001604051908101604052809291908181526020018280546106c590611b76565b80156107125780601f106106e757610100808354040283529160200191610712565b820191906000526020600020905b8154815290600101906020018083116106f557829003601f168201915b5050505050905090565b61072e61072761097b565b8383610ca8565b5050565b61073d84848461049c565b61074984848484610e17565b50505050565b606061075a826108b6565b506000610765610fce565b9050600081511161078557604051806020016040528060008152506107b0565b8061078f84610fe5565b6040516020016107a0929190611c1a565b6040516020818303038152906040525b915050919050565b6000600560008473ffffffffffffffffffffffffffffffffffffffff1673ffffffffffffffffffffffffffffffffffffffff16815260200190815260200160002060008373ffffffffffffffffffffffffffffffffffffffff1673ffffffffffffffffffffffffffffffffffffffff16815260200190815260200160002060009054906101000a900460ff16905092915050565b60007f01ffc9a7000000000000000000000000000000000000000000000000000000007bffffffffffffffffffffffffffffffffffffffffffffffffffffffff1916827bffffffffffffffffffffffffffffffffffffffffffffffffffffffff1916149050919050565b6000806108c2836110b3565b9050600073ffffffffffffffffffffffffffffffffffffffff168173ffffffffffffffffffffffffffffffffffffffff160361093557826040517f7e27328900000000000000000000000000000000000000000000000000000000815260040161092c91906118c8565b60405180910390fd5b80915050919050565b60006004600083815260200190815260200160002060009054906101000a900473ffffffffffffffffffffffffffffffffffffffff169050919050565b600033905090565b61099083838360016110f0565b505050565b600073ffffffffffffffffffffffffffffffffffffffff168273ffffffffffffffffffffffffffffffffffffffff1603610a075760006040517f64a0ae920000000000000000000000000000000000000000000000000000000081526004016109fe91906117b2565b60405180910390fd5b6000610a1583836000610a8e565b9050600073ffffffffffffffffffffffffffffffffffffffff168173ffffffffffffffffffffffffffffffffffffffff1614610a895760006040517f73c6ac6e000000000000000000000000000000000000000000000000000000008152600401610a8091906117b2565b60405180910390fd5b505050565b600080610a9a846110b3565b9050600073ffffffffffffffffffffffffffffffffffffffff168373ffffffffffffffffffffffffffffffffffffffff1614610adc57610adb8184866112b5565b5b600073ffffffffffffffffffffffffffffffffffffffff168173ffffffffffffffffffffffffffffffffffffffff1614610b6d57610b1e6000856000806110f0565b6001600360008373ffffffffffffffffffffffffffffffffffffffff1673ffffffffffffffffffffffffffffffffffffffff168152602001908152602001600020600082825403925050819055505b600073ffffffffffffffffffffffffffffffffffffffff168573ffffffffffffffffffffffffffffffffffffffff1614610bf0576001600360008773ffffffffffffffffffffffffffffffffffffffff1673ffffffffffffffffffffffffffffffffffffffff168152602001908152602001600020600082825401925050819055505b846002600086815260200190815260200160002060006101000a81548173ffffffffffffffffffffffffffffffffffffffff021916908373ffffffffffffffffffffffffffffffffffffffff160217905550838573ffffffffffffffffffffffffffffffffffffffff168273ffffffffffffffffffffffffffffffffffffffff167fddf252ad1be2c89b69c2b068fc378daa952ba7f163c4a11628f55a4df523b3ef60405160405180910390a4809150509392505050565b600073ffffffffffffffffffffffffffffffffffffffff168273ffffffffffffffffffffffffffffffffffffffff1603610d1957816040517f5b08ba18000000000000000000000000000000000000000000000000000000008152600401610d1091906117b2565b60405180910390fd5b80600560008573ffffffffffffffffffffffffffffffffffffffff1673ffffffffffffffffffffffffffffffffffffffff16815260200190815260200160002060008473ffffffffffffffffffffffffffffffffffffffff1673ffffffffffffffffffffffffffffffffffffffff16815260200190815260200160002060006101000a81548160ff0219169083151502179055508173ffffffffffffffffffffffffffffffffffffffff168373ffffffffffffffffffffffffffffffffffffffff167f17307eab39ab6107e8899845ad3d59bd9653f200f220920489ca2b5937696c3183604051610e0a9190611641565b60405180910390a3505050565b60008373ffffffffffffffffffffffffffffffffffffffff163b1115610fc8578273ffffffffffffffffffffffffffffffffffffffff1663150b7a02610e5b61097b565b8685856040518563ffffffff1660e01b8152600401610e7d9493929190611c93565b6020604051808303816000875af1925050508015610eb957506040513d601f19601f82011682018060405250810190610eb69190611cf4565b60015b610f3d573d8060008114610ee9576040519150601f19603f3d011682016040523d82523d6000602084013e610eee565b606091505b506000815103610f3557836040517f64a0ae92000000000000000000000000000000000000000000000000000000008152600401610f2c91906117b2565b60405180910390fd5b805181602001fd5b63150b7a0260e01b7bffffffffffffffffffffffffffffffffffffffffffffffffffffffff1916817bffffffffffffffffffffffffffffffffffffffffffffffffffffffff191614610fc657836040517f64a0ae92000000000000000000000000000000000000000000000000000000008152600401610fbd91906117b2565b60405180910390fd5b505b50505050565b606060405180602001604052806000815250905090565b606060006001610ff484611379565b01905060008167ffffffffffffffff81111561101357611012611959565b5b6040519080825280601f01601f1916602001820160405280156110455781602001600182028036833780820191505090505b509050600082602001820190505b6001156110a8578080600190039150507f3031323334353637383961626364656600000000000000000000000000000000600a86061a8153600a858161109c5761109b611d21565b5b04945060008503611053575b819350505050919050565b60006002600083815260200190815260200160002060009054906101000a900473ffffffffffffffffffffffffffffffffffffffff169050919050565b80806111295750600073ffffffffffffffffffffffffffffffffffffffff168273ffffffffffffffffffffffffffffffffffffffff1614155b1561125d576000611139846108b6565b9050600073ffffffffffffffffffffffffffffffffffffffff168373ffffffffffffffffffffffffffffffffffffffff16141580156111a457508273ffffffffffffffffffffffffffffffffffffffff168173ffffffffffffffffffffffffffffffffffffffff1614155b80156111b757506111b581846107b8565b155b156111f957826040517fa9fbf51f0000000000000000000000000000000000000000000000000000000081526004016111f091906117b2565b60405180910390fd5b811561125b57838573ffffffffffffffffffffffffffffffffffffffff168273ffffffffffffffffffffffffffffffffffffffff167f8c5be1e5ebec7d5bd14f71427d1e84f3dd0314c0f7b2291e5b200ac8c7c3b92560405160405180910390a45b505b836004600085815260200190815260200160002060006101000a81548173ffffffffffffffffffffffffffffffffffffffff021916908373ffffffffffffffffffffffffffffffffffffffff16021790555050505050565b6112c08383836114cc565b61137457600073ffffffffffffffffffffffffffffffffffffffff168373ffffffffffffffffffffffffffffffffffffffff160361133557806040517f7e27328900000000000000000000000000000000000000000000000000000000815260040161132c91906118c8565b60405180910390fd5b81816040517f177e802f00000000000000000000000000000000000000000000000000000000815260040161136b929190611d50565b60405180910390fd5b505050565b600080600090507a184f03e93ff9f4daa797ed6e38ed64bf6a1f01000000000000000083106113d7577a184f03e93ff9f4daa797ed6e38ed64bf6a1f01000000000000000083816113cd576113cc611d21565b5b0492506040810190505b6d04ee2d6d415b85acef81000000008310611414576d04ee2d6d415b85acef8100000000838161140a57611409611d21565b5b0492506020810190505b662386f26fc10000831061144357662386f26fc10000838161143957611438611d21565b5b0492506010810190505b6305f5e100831061146c576305f5e100838161146257611461611d21565b5b0492506008810190505b612710831061149157612710838161148757611486611d21565b5b0492506004810190505b606483106114b457606483816114aa576114a9611d21565b5b0492506002810190505b600a83106114c3576001810190505b80915050919050565b60008073ffffffffffffffffffffffffffffffffffffffff168373ffffffffffffffffffffffffffffffffffffffff161415801561158457508273ffffffffffffffffffffffffffffffffffffffff168473ffffffffffffffffffffffffffffffffffffffff161480611545575061154484846107b8565b5b8061158357508273ffffffffffffffffffffffffffffffffffffffff1661156b8361093e565b73ffffffffffffffffffffffffffffffffffffffff16145b5b90509392505050565b6000604051905090565b600080fd5b600080fd5b60007fffffffff0000000000000000000000000000000000000000000000000000000082169050919050565b6115d6816115a1565b81146115e157600080fd5b50565b6000813590506115f3816115cd565b92915050565b60006020828403121561160f5761160e611597565b5b600061161d848285016115e4565b91505092915050565b60008115159050919050565b61163b81611626565b82525050565b60006020820190506116566000830184611632565b92915050565b600081519050919050565b600082825260208201905092915050565b60005b8381101561169657808201518184015260208101905061167b565b60008484015250505050565b6000601f19601f8301169050919050565b60006116be8261165c565b6116c88185611667565b93506116d8818560208601611678565b6116e1816116a2565b840191505092915050565b6000602082019050818103600083015261170681846116b3565b905092915050565b6000819050919050565b6117218161170e565b811461172c57600080fd5b50565b60008135905061173e81611718565b92915050565b60006020828403121561175a57611759611597565b5b60006117688482850161172f565b91505092915050565b600073ffffffffffffffffffffffffffffffffffffffff82169050919050565b600061179c82611771565b9050919050565b6117ac81611791565b82525050565b60006020820190506117c760008301846117a3565b92915050565b6117d681611791565b81146117e157600080fd5b50565b6000813590506117f3816117cd565b92915050565b600080604083850312156118105761180f611597565b5b600061181e858286016117e4565b925050602061182f8582860161172f565b9150509250929050565b60008060006060848603121561185257611851611597565b5b6000611860868287016117e4565b9350506020611871868287016117e4565b92505060406118828682870161172f565b9150509250925092565b6000602082840312156118a2576118a1611597565b5b60006118b0848285016117e4565b91505092915050565b6118c28161170e565b82525050565b60006020820190506118dd60008301846118b9565b92915050565b6118ec81611626565b81146118f757600080fd5b50565b600081359050611909816118e3565b92915050565b6000806040838503121561192657611925611597565b5b6000611934858286016117e4565b9250506020611945858286016118fa565b9150509250929050565b600080fd5b600080fd5b7f4e487b7100000000000000000000000000000000000000000000000000000000600052604160045260246000fd5b611991826116a2565b810181811067ffffffffffffffff821117156119b0576119af611959565b5b80604052505050565b60006119c361158d565b90506119cf8282611988565b919050565b600067ffffffffffffffff8211156119ef576119ee611959565b5b6119f8826116a2565b9050602081019050919050565b82818337600083830152505050565b6000611a27611a22846119d4565b6119b9565b905082815260208101848484011115611a4357611a42611954565b5b611a4e848285611a05565b509392505050565b600082601f830112611a6b57611a6a61194f565b5b8135611a7b848260208601611a14565b91505092915050565b60008060008060808587031215611a9e57611a9d611597565b5b6000611aac878288016117e4565b9450506020611abd878288016117e4565b9350506040611ace8782880161172f565b925050606085013567ffffffffffffffff811115611aef57611aee61159c565b5b611afb87828801611a56565b91505092959194509250565b60008060408385031215611b1e57611b1d611597565b5b6000611b2c858286016117e4565b9250506020611b3d858286016117e4565b9150509250929050565b7f4e487b7100000000000000000000000000000000000000000000000000000000600052602260045260246000fd5b60006002820490506001821680611b8e57607f821691505b602082108103611ba157611ba0611b47565b5b50919050565b6000606082019050611bbc60008301866117a3565b611bc960208301856118b9565b611bd660408301846117a3565b949350505050565b600081905092915050565b6000611bf48261165c565b611bfe8185611bde565b9350611c0e818560208601611678565b80840191505092915050565b6000611c268285611be9565b9150611c328284611be9565b91508190509392505050565b600081519050919050565b600082825260208201905092915050565b6000611c6582611c3e565b611c6f8185611c49565b9350611c7f818560208601611678565b611c88816116a2565b840191505092915050565b6000608082019050611ca860008301876117a3565b611cb560208301866117a3565b611cc260408301856118b9565b8181036060830152611cd48184611c5a565b905095945050505050565b600081519050611cee816115cd565b92915050565b600060208284031215611d0a57611d09611597565b5b6000611d1884828501611cdf565b91505092915050565b7f4e487b7100000000000000000000000000000000000000000000000000000000600052601260045260246000fd5b6000604082019050611d6560008301856117a3565b611d7260208301846118b9565b939250505056fea26469706673582212203c9cdf4a6eafe5bf884f50de353fd9baacf7fe2f56c152346c3e680fda94ff9b64736f6c63430008140033",
  "linkReferences": {},
  "deployedLinkReferences": {}
}